:020000040800F2
:10000000002800208D030008DD030008DD03000840
:10001000DD030008DD030008DD0300080000000028
:10002000000000000000000000000000DD030008E8
:10003000DD03000800000000DD030008DD03000808
:10004000DD030008DD030008DD030008DD03000810
:10005000DD030008DD030008090B00082D0B000874
:10006000510B0008750B0008990B0008DD03000810
:10007000DD030008DD030008DD030008DD030008E0
:10008000DD030008DD030008DD030008DD030008D0
:10009000DD030008DD030008DD030008BD0B0008D8
:1000A000DD030008DD030008DD030008DD030008B0
:1000B000DD030008DD030008DD030008DD030008A0
:1000C000DD030008DD030008DD030008DD03000890
:1000D000DD030008DD030008DD030008DD03000880
:1000E000650C0008DD03000800000000DD030008C7
:1000F000DD030008DD030008DD030008DD03000860
:10010000DD030008DD030008DD030008DD0300084F
:10011000DD030008DD030008DD030008DD0300083F
:10012000DD030008DD030008DD030008DD0300082F
:1001300010B5054C237833B9044B13B10448AFF321
:1001400000800123237010BD20000020000000006B
:10015000B80F000808B5034B1BB103490348AFF3C0
:10016000008008BD0000000024000020B80F000837
:1001700080B586B000AF00F0D9F800F02DFB00F09C
:100180002FF900F05FFA00237B6100233B6100231D
:10019000FB604123FB7000233B810023FB80002395
:1001A000BB8000F069F90346FB70FB782A3B172BF4
:1001B00000F2918001A252F823F000BF370200083C
:1001C00037020008D702000837020008D7020008EB
:1001D00037020008D7020008D7020008D70200083B
:1001E000D7020008D7020008D7020008D70200088B
:1001F000D7020008D7020008D7020008D70200087B
:10020000D7020008D702000855020008D7020008EC
:100210001D020008D70200081903000800F012FAB6
:1002200000237B6100233B6100233B810023FB8093
:100230000023BB8075E0BB88002B6FD13B89012B6D
:100240006CD1FB78184600F055FB0123BB80FB788E
:10025000FB7263E0BB88012B62D13B89002B5FD02E
:10026000FB88002B5CD0FB7A2A3B052B24D801A20B
:1002700052F823F0A10200088D020008B90200081C
:1002800097020008B9020008AD0200087A693B69CC
:100290001344FB6010E07A693B69D31AFB600BE002
:1002A0007B693A6902FB03F3FB6005E07A693B690D
:1002B00092FBF3F3FB6000BF3D2000F01BFBF868EE
:1002C00000F0AAFBFB687B6100233B610023BB803D
:1002D0000023FB8024E0BB88002B0CD17A691346F5
:1002E0009B0013445B001A46FB781344303B7B6150
:1002F00001233B810BE03A6913469B0013445B00EA
:100300001A46FB781344303B3B610123FB80FB78AA
:10031000184600F0EFFA04E000BF02E000BF00E082
:1003200000BF322000F016F83BE700BF80B400AFFA
:10033000074B9B69064A43F004039361044B9B6996
:10034000034A43F00803936100BFBD4680BC704779
:100350000010024080B485B000AF78600023FB60DD
:100360000BE00023BB6002E0BB680133BB60BB68ED
:10037000FE2BF9D9FB680133FB60FA687B689A426F
:10038000EFD300BF1437BD4680BC70470D4885468B
:10039000AFF300800C480D490D4A002302E0D45809
:1003A000C4500433C4188C42F9D30A4A0A4C0023BF
:1003B00001E013600432A242FBD300F0D1FDFFF74D
:1003C000D7FEFEE7002800200000002020000020CB
:1003D000D80F00082000002084000020FEE7000065
:1003E00080B500AF224B04225A80214B01229A8013
:1003F0001F4B01221A801E491E4800F0F8FC1C4BBE
:1004000002221A801A491B4800F0F1FC184B0822FE
:100410001A801749174800F0EAFC154B10221A8081
:100420001349144800F0E3FC114B20221A801049B4
:10043000104800F0DCFC0E4B40221A800C490D489D
:1004400000F0D5FC0A4B80221A800949094800F0C7
:10045000CEFC074B4FF480721A800549054800F026
:10046000C6FCFF21034800F06CFD00BF80BD00BF4B
:100470003C000020000C014080B582B000AF01229A
:1004800020215F4800F046FD012240215C4800F039
:1004900041FD012280215A4800F03CFD01224FF429
:1004A0008071574800F036FD00237B609FE0554A7D
:1004B0007B6852F823309BB200221946504800F066
:1004C00029FD00233B6081E04F4A3B6852F823300E
:1004D0009BB219464A4800F006FD0346002B72D134
:1004E00000BF494A3B6852F823309BB21946444842
:1004F00000F0F9FC0346002BF3D07B68032B62D895
:1005000001A252F823F000BF1905000841050008B8
:1005100069050008910500083B68002B01D13723CD
:100520006AE03B68012B01D1342365E03B68022B74
:1005300001D1312360E03B68032B3DD13F235BE0D9
:100540003B68002B01D1382356E03B68012B01D1D9
:10055000352351E03B68022B01D132234CE03B684C
:10056000032B2BD1302347E03B68002B01D13923EB
:1005700042E03B68012B01D136233DE03B68022B72
:1005800001D1332338E03B68032B19D13D2333E0FD
:100590003B68002B01D12F232EE03B68012B01D1BA
:1005A0002A2329E03B68022B01D12D2324E03B685C
:1005B000032B07D12B231FE000BF04E000BF02E0A4
:1005C00000BF00E000BF3B6801333B603B68032B8A
:1005D0007FF77AAF0B4A7B6852F823309BB2012237
:1005E0001946074800F096FC7B6801337B607B6806
:1005F000032B7FF75CAF412318460837BD4680BD0B
:10060000000C0140100000200000002080B485B0E4
:1006100000AF78600023FB600BE00023BB6002E0CA
:10062000BB680133BB60BB68FE2BF9D9FB680133A3
:10063000FB60FA687B689A42EFD300BF1437BD466F
:1006400080BC704780B500AF012000F0E3F800BF28
:1006500080BD000080B500AF01224FF480610748E3
:1006600000F058FC0520FFF7D1FF00224FF4806115
:10067000024800F04FFC00BF80BD00BF00080140F1
:1006800080B500AF524B04225A80514B4FF4806228
:100690001A804F4B01229A804D494E4800F0A7FB2B
:1006A0004B4B04225A804A4B4FF400721A80484B3D
:1006B00001229A804649474800F099FB444B0422A6
:1006C0005A80434B4FF480721A80414B01229A802A
:1006D0003F49404800F08BFB00224FF480613D48C9
:1006E00000F018FC00224FF400713A4800F012FCB0
:1006F00000224FF48071374800F00CFC344B042288
:100700005A80334B01221A80314B01229A803049A2
:10071000304800F06CFB2E4B04225A802C4B0222F6
:100720001A802B4B01229A8029492A4800F05FFB4E
:10073000274B04225A80264B04221A80244B012284
:100740009A802349234800F052FB214B04225A800F
:100750001F4B08221A801E4B01229A801C491D48FB
:1007600000F045FB1A4B04225A80194B10221A80C4
:10077000174B01229A801649164800F038FB144B9B
:1007800004225A80124B20221A80114B01229A8097
:100790000F49104800F02BFB0D4B04225A800C4BE4
:1007A00040221A800A4B01229A800949094800F028
:1007B0001EFB074B04225A80054B80221A80044BF3
:1007C00001229A800249034800F011FB00BF80BD5E
:1007D0003C0000200008014080B500AF1420FFF766
:1007E00015FFFFF74DFF1420FFF710FF012000F069
:1007F00011F8382000F00EF80520FFF707FF06205B
:1008000000F008F8802000F005F80F2000F002F852
:1008100000BF80BD80B582B000AF0346FB710022EF
:100820004FF40071324800F075FB00224FF48071E4
:100830002F4800F06FFBFB7903F00103DBB21A468F
:1008400001212B4800F066FBFB795B08DBB203F06B
:100850000103DBB21A460221254800F05BFBFB795D
:100860009B08DBB203F00103DBB21A4604212048E7
:1008700000F050FBFB79DB08DBB203F00103DBB2D5
:100880001A4608211A4800F045FBFB791B09DBB228
:1008900003F00103DBB21A461021154800F03AFBC1
:1008A000FB795B09DBB203F00103DBB21A462021BE
:1008B0000F4800F02FFBFB799B09DBB203F001032B
:1008C000DBB21A4640210A4800F024FBFB79DB0921
:1008D000DBB21A468021064800F01CFB0120FFF71E
:1008E00095FEFFF7B7FE00BF0837BD4680BD00BFCD
:1008F0000008014080B582B000AF0346FB710022C2
:100900004FF40071324800F005FB01224FF4807172
:100910002F4800F0FFFAFB7903F00103DBB21A461F
:1009200001212B4800F0F6FAFB795B08DBB203F0FB
:100930000103DBB21A460221254800F0EBFAFB79ED
:100940009B08DBB203F00103DBB21A460421204806
:1009500000F0E0FAFB79DB08DBB203F00103DBB265
:100960001A4608211A4800F0D5FAFB791B09DBB2B8
:1009700003F00103DBB21A461021154800F0CAFA51
:10098000FB795B09DBB203F00103DBB21A462021DD
:100990000F4800F0BFFAFB799B09DBB203F00103BB
:1009A000DBB21A4640210A4800F0B4FAFB79DB09B1
:1009B000DBB21A468021064800F0ACFA0120FFF7AE
:1009C00025FEFFF747FE00BF0837BD4680BD00BFCC
:1009D0000008014080B582B000AF03460A46FB71B3
:1009E0001346BB71FB79012B09D1BB790F2B06D8BC
:1009F000BB79803BDBB21846FFF70CFF08E0FB79C0
:100A0000022B05D1BB79403BDBB21846FFF702FF52
:100A100000BF0837BD4680BD80B598B000AF786094
:100A20000023FB6500237B6507F10C0340220021B6
:100A3000184600F0B9FA31E00023BB657B683B65DE
:100A40000AE03B6D2F4A82FB03129210DB17D31A88
:100A50003B65BB6D0133BB653B6D092BF1DCBB6DA9
:100A60009B0007F1600213443A6D43F8542C7A6DF1
:100A7000BB6D9A420BDABB6D7B6508E03A6D13469D
:100A80009B0013445B003B65BB6D013BBB65BB6DCD
:100A9000002BF3D17A683B6DD31A7B607B68002B07
:100AA000CAD17B6DFB6425E0FB6D0133FB65FB6CFC
:100AB0009B0007F16002134453F8543CDBB230331F
:100AC000DBB21846FFF716FFFB6D102B04D1002197
:100AD0000220FFF77FFF0AE0FB6D202B07D1FFF715
:100AE000B1FD00210120FFF775FF0023FB65FB6CC2
:100AF000013BFB64FB6C002BD6DA00BF6037BD46C0
:100B000080BD00BF6766666680B500AF054B5B6958
:100B1000044A43F001035361034B1B68984700BF2D
:100B200080BD00BF000401404400002080B500AF3C
:100B3000054B5B69044A43F001035361034B1B6897
:100B4000984700BF80BD00BF000401404400002062
:100B500080B500AF054B5B69044A43F00203536163
:100B6000034B5B68984700BF80BD00BF0004014095
:100B70004400002080B500AF054B5B69044A43F098
:100B800004035361034B9B68984700BF80BD00BFBF
:100B9000000401404400002080B500AF054B5B69B4
:100BA000044A43F008035361034BDB68984700BFD6
:100BB00080BD00BF000401404400002080B500AFAC
:100BC000264B5B6903F02003002B08D0234B5B69A5
:100BD000224A43F020035361214B5B6998471F4B26
:100BE0005B6903F04003002B08D01C4B5B691B4A78
:100BF00043F0400353611A4B9B699847174B5B695D
:100C000003F08003002B08D0144B5B69134A43F0B8
:100C100080035361124BDB699847104B5B6903F407
:100C20008073002B08D00D4B5B690C4A43F4807332
:100C300053610B4B1B6A9847084B5B6903F40073C5
:100C4000002B08D0054B5B69044A43F400735361E1
:100C5000034B5B6A984700BF80BD00BF00040140A2
:100C60004400002080B500AF2D4B5B6903F4806326
:100C7000002B08D02A4B5B69294A43F480635361F7
:100C8000284B9B6A9847264B5B6903F40063002B53
:100C900008D0234B5B69224A43F400635361214B24
:100CA000DB6A98471E4B5B6903F48053002B08D026
:100CB0001B4B5B691A4A43F480535361194B1B6BFE
:100CC0009847174B5B6903F40053002B08D0144B73
:100CD0005B69134A43F400535361124B5B6B9847B3
:100CE0000F4B5B6903F48043002B08D00C4B5B690E
:100CF0000B4A43F4804353610A4B9B6B9847084B64
:100D00005B6903F40043002B08D0054B5B69044A80
:100D100043F400435361034BDB6B984700BF80BD36
:100D2000000401404400002080B483B000AF0346BB
:100D3000FB80FB88802B42D0802B11DC082B36D027
:100D4000082B06DC022B2ED0042B2ED0012B28D012
:100D500047E0202B2FD0402B2FD0102B29D040E064
:100D6000B3F5006F33D0B3F5006F09DCB3F5007F46
:100D700029D0B3F5806F28D0B3F5807F21D030E043
:100D8000B3F5005F27D0B3F5005F03DCB3F5805FF8
:100D90001FD026E0B3F5804F1FD0B3F5004F1ED013
:100DA0001FE000231EE004231CE008231AE00C23AC
:100DB00018E0102316E0142314E0182312E01C237B
:100DC00010E000230EE004230CE008230AE00C23CB
:100DD00008E0102306E0142304E0182302E01C239B
:100DE00000E0002318460C37BD4680BC704790B524
:100DF00085B000AF786039600023FB600023FB7290
:100E00003B681B88FF2B01D87B6801E07B680433BB
:100E1000FB603B681B881846FFF786FF03461A46AF
:100E20000F239340DA43FB681B681A40FB681A6083
:100E30003B685B88042B0BD03B685B88052B07D095
:100E40003B685B88062B03D03B685B88072B0FD180
:100E50003B685B88043B9B005AB23B689B885BB253
:100E600013435BB2DBB203F00F03DBB2FB7226E08D
:100E70003B685B88002B03D03B685B88012B08D163
:100E80003B685B889B00DBB203F00F03DBB2FB72B5
:100E900015E00823FB723B685B88032B08D17B6855
:100EA000DB683A681288D2431A407B68DA6006E051
:100EB0007B68DB683A6812881A437B68DA60FB7AE1
:100EC000DBB21C463B681B881846FFF72DFF034624
:100ED00004FA03F2FB681B681A43FB681A6000BF40
:100EE0001437BD4690BD80B485B000AF78600B4626
:100EF0007B807B689A687B881340002B02D001239B
:100F0000FB7301E00023FB73FB7B18461437BD46DF
:100F100080BC704780B483B000AF78600B467B80A4
:100F200013467B707B78012B03D17A887B681A612A
:100F300002E07A887B685A6100BF0C37BD4680BCEE
:100F4000704780B483B000AF78600B467B807A88AE
:100F50007B68DA6000BF0C37BD4680BC704700007C
:100F600070B500250C4E0D4CA41BA410A54209D150
:100F700000F022F800250A4E0A4CA41BA410A5423A
:100F800005D170BD56F8253098470135EEE756F883
:100F9000253098470135F2E7D00F0008D00F000840
:100FA000D00F0008D40F000803460244934200D13A
:100FB000704703F8011BF9E7F8B500BFF8BC08BC9F
:100FC0009E467047F8B500BFF8BC08BC9E46704707
:040FD00055010008BF
:040FD40031010008DF
:100FD80001000000020000000800000010000000EE
:100FE8002000000040000000800000000001000018
:040000050800038D5F
:00000001FF
